{
  "_format": "hh-sol-artifact-1",
  "contractName": "NFTMarketPlace",
  "sourceName": "contracts/NFTMarketPlace.sol",
  "abi": [
    {
      "inputs": [
        {
          "internalType": "address",
          "name": "nftAddress",
          "type": "address"
        },
        {
          "internalType": "uint256",
          "name": "tokenId",
          "type": "uint256"
        }
      ],
      "name": "AlreadyListed",
      "type": "error"
    },
    {
      "inputs": [],
      "name": "IsNotOwner",
      "type": "error"
    },
    {
      "inputs": [],
      "name": "NoProceeds",
      "type": "error"
    },
    {
      "inputs": [],
      "name": "NotApprovedForMarketplace",
      "type": "error"
    },
    {
      "inputs": [
        {
          "internalType": "address",
          "name": "nftAddress",
          "type": "address"
        },
        {
          "internalType": "uint256",
          "name": "tokenId",
          "type": "uint256"
        }
      ],
      "name": "NotListed",
      "type": "error"
    },
    {
      "inputs": [],
      "name": "NotOwner",
      "type": "error"
    },
    {
      "inputs": [],
      "name": "PriceMustBeAboveZero",
      "type": "error"
    },
    {
      "inputs": [
        {
          "internalType": "address",
          "name": "nftAddress",
          "type": "address"
        },
        {
          "internalType": "uint256",
          "name": "tokenId",
          "type": "uint256"
        },
        {
          "internalType": "uint256",
          "name": "price",
          "type": "uint256"
        }
      ],
      "name": "PriceNotMet",
      "type": "error"
    },
    {
      "anonymous": false,
      "inputs": [
        {
          "indexed": true,
          "internalType": "address",
          "name": "buyer",
          "type": "address"
        },
        {
          "indexed": true,
          "internalType": "address",
          "name": "nftAddress",
          "type": "address"
        },
        {
          "indexed": true,
          "internalType": "uint256",
          "name": "tokenId",
          "type": "uint256"
        },
        {
          "indexed": false,
          "internalType": "uint256",
          "name": "price",
          "type": "uint256"
        }
      ],
      "name": "ItemBought",
      "type": "event"
    },
    {
      "anonymous": false,
      "inputs": [
        {
          "indexed": true,
          "internalType": "address",
          "name": "seller",
          "type": "address"
        },
        {
          "indexed": true,
          "internalType": "address",
          "name": "nftAddress",
          "type": "address"
        },
        {
          "indexed": true,
          "internalType": "uint256",
          "name": "tokenId",
          "type": "uint256"
        }
      ],
      "name": "ItemCanceled",
      "type": "event"
    },
    {
      "anonymous": false,
      "inputs": [
        {
          "indexed": true,
          "internalType": "address",
          "name": "seller",
          "type": "address"
        },
        {
          "indexed": true,
          "internalType": "address",
          "name": "nftAddress",
          "type": "address"
        },
        {
          "indexed": true,
          "internalType": "uint256",
          "name": "tokenId",
          "type": "uint256"
        },
        {
          "indexed": false,
          "internalType": "uint256",
          "name": "price",
          "type": "uint256"
        }
      ],
      "name": "ItemListed",
      "type": "event"
    },
    {
      "anonymous": false,
      "inputs": [
        {
          "indexed": true,
          "internalType": "address",
          "name": "previousOwner",
          "type": "address"
        },
        {
          "indexed": true,
          "internalType": "address",
          "name": "newOwner",
          "type": "address"
        }
      ],
      "name": "OwnershipTransferred",
      "type": "event"
    },
    {
      "inputs": [
        {
          "internalType": "address",
          "name": "nftAddress",
          "type": "address"
        },
        {
          "internalType": "uint256",
          "name": "tokenId",
          "type": "uint256"
        }
      ],
      "name": "buyItem",
      "outputs": [],
      "stateMutability": "payable",
      "type": "function"
    },
    {
      "inputs": [
        {
          "internalType": "address",
          "name": "nftAddress",
          "type": "address"
        },
        {
          "internalType": "uint256",
          "name": "tokenId",
          "type": "uint256"
        }
      ],
      "name": "cancelListing",
      "outputs": [],
      "stateMutability": "nonpayable",
      "type": "function"
    },
    {
      "inputs": [
        {
          "internalType": "address",
          "name": "nftAddress",
          "type": "address"
        },
        {
          "internalType": "uint256",
          "name": "tokenId",
          "type": "uint256"
        }
      ],
      "name": "getListing",
      "outputs": [
        {
          "components": [
            {
              "internalType": "uint256",
              "name": "price",
              "type": "uint256"
            },
            {
              "internalType": "address",
              "name": "seller",
              "type": "address"
            }
          ],
          "internalType": "struct NFTMarketPlace.Listing",
          "name": "",
          "type": "tuple"
        }
      ],
      "stateMutability": "view",
      "type": "function"
    },
    {
      "inputs": [
        {
          "internalType": "address",
          "name": "seller",
          "type": "address"
        }
      ],
      "name": "getProceeds",
      "outputs": [
        {
          "internalType": "uint256",
          "name": "",
          "type": "uint256"
        }
      ],
      "stateMutability": "view",
      "type": "function"
    },
    {
      "inputs": [],
      "name": "getroyaltiesRate",
      "outputs": [
        {
          "internalType": "uint256",
          "name": "",
          "type": "uint256"
        }
      ],
      "stateMutability": "view",
      "type": "function"
    },
    {
      "inputs": [
        {
          "internalType": "address",
          "name": "nftAddress",
          "type": "address"
        },
        {
          "internalType": "uint256",
          "name": "tokenId",
          "type": "uint256"
        },
        {
          "internalType": "uint256",
          "name": "price",
          "type": "uint256"
        }
      ],
      "name": "listItem",
      "outputs": [],
      "stateMutability": "nonpayable",
      "type": "function"
    },
    {
      "inputs": [],
      "name": "owner",
      "outputs": [
        {
          "internalType": "address",
          "name": "",
          "type": "address"
        }
      ],
      "stateMutability": "view",
      "type": "function"
    },
    {
      "inputs": [],
      "name": "renounceOwnership",
      "outputs": [],
      "stateMutability": "nonpayable",
      "type": "function"
    },
    {
      "inputs": [
        {
          "internalType": "uint256",
          "name": "newRoyaltiesRate",
          "type": "uint256"
        }
      ],
      "name": "setRoyaltiesRate",
      "outputs": [],
      "stateMutability": "nonpayable",
      "type": "function"
    },
    {
      "inputs": [
        {
          "internalType": "address",
          "name": "newOwner",
          "type": "address"
        }
      ],
      "name": "transferOwnership",
      "outputs": [],
      "stateMutability": "nonpayable",
      "type": "function"
    },
    {
      "inputs": [
        {
          "internalType": "address",
          "name": "nftAddress",
          "type": "address"
        },
        {
          "internalType": "uint256",
          "name": "tokenId",
          "type": "uint256"
        },
        {
          "internalType": "uint256",
          "name": "newPrice",
          "type": "uint256"
        }
      ],
      "name": "updateListing",
      "outputs": [],
      "stateMutability": "nonpayable",
      "type": "function"
    },
    {
      "inputs": [],
      "name": "withdrawProceeds",
      "outputs": [],
      "stateMutability": "nonpayable",
      "type": "function"
    },
    {
      "inputs": [
        {
          "internalType": "uint256",
          "name": "amount",
          "type": "uint256"
        }
      ],
      "name": "withdrawRoyalties",
      "outputs": [],
      "stateMutability": "nonpayable",
      "type": "function"
    }
  ],
  "bytecode": "0x60806040526101f4600255600060035534801561001b57600080fd5b50600160008190555061004061003561004560201b60201c565b61004d60201b60201c565b610113565b600033905090565b6000600160009054906101000a900473ffffffffffffffffffffffffffffffffffffffff16905081600160006101000a81548173ffffffffffffffffffffffffffffffffffffffff021916908373ffffffffffffffffffffffffffffffffffffffff1602179055508173ffffffffffffffffffffffffffffffffffffffff168173ffffffffffffffffffffffffffffffffffffffff167f8be0079c531659141344cd1fd0a4f28419497f9722a3daafe3b4186f6b6457e060405160405180910390a35050565b61202a80620001236000396000f3fe6080604052600436106100c25760003560e01c806389bfd38f1161007f5780639f37092a116100595780639f37092a14610240578063b2ddee061461025c578063f2fde38b14610285578063f772adf1146102ae576100c2565b806389bfd38f146101d55780638da5cb5b146101fe5780639038e69314610229576100c2565b80630cdff3fd146100c757806330cfeda9146100f257806331b37c651461012f5780635daa02ed14610158578063715018a61461018157806388700d1c14610198575b600080fd5b3480156100d357600080fd5b506100dc6102d7565b6040516100e99190611cea565b60405180910390f35b3480156100fe57600080fd5b5061011960048036038101906101149190611925565b6102ee565b6040516101269190611cea565b60405180910390f35b34801561013b57600080fd5b5061015660048036038101906101519190611a02565b610337565b005b34801561016457600080fd5b5061017f600480360381019061017a9190611a02565b610349565b005b34801561018d57600080fd5b50610196610429565b005b3480156101a457600080fd5b506101bf60048036038101906101ba9190611977565b61043d565b6040516101cc9190611ccf565b60405180910390f35b3480156101e157600080fd5b506101fc60048036038101906101f791906119b3565b610508565b005b34801561020a57600080fd5b5061021361097e565b6040516102209190611b7d565b60405180910390f35b34801561023557600080fd5b5061023e6109a8565b005b61025a60048036038101906102559190611977565b610b1b565b005b34801561026857600080fd5b50610283600480360381019061027e9190611977565b611096565b005b34801561029157600080fd5b506102ac60048036038101906102a79190611925565b611385565b005b3480156102ba57600080fd5b506102d560048036038101906102d091906119b3565b611409565b005b60006127106002546102e99190611d77565b905090565b6000600560008373ffffffffffffffffffffffffffffffffffffffff1673ffffffffffffffffffffffffffffffffffffffff168152602001908152602001600020549050919050565b61033f61176a565b8060028190555050565b61035161176a565b60035481111561036057600080fd5b80600360008282546103729190611e02565b9250508190555060003373ffffffffffffffffffffffffffffffffffffffff168260405161039f90611b68565b60006040518083038185875af1925050503d80600081146103dc576040519150601f19603f3d011682016040523d82523d6000602084013e6103e1565b606091505b5050905080610425576040517f08c379a000000000000000000000000000000000000000000000000000000000815260040161041c90611c2f565b60405180910390fd5b5050565b61043161176a565b61043b60006117e8565b565b6104456118b6565b600460008473ffffffffffffffffffffffffffffffffffffffff1673ffffffffffffffffffffffffffffffffffffffff1681526020019081526020016000206000838152602001908152602001600020604051806040016040529081600082015481526020016001820160009054906101000a900473ffffffffffffffffffffffffffffffffffffffff1673ffffffffffffffffffffffffffffffffffffffff1673ffffffffffffffffffffffffffffffffffffffff1681525050905092915050565b82826000600460008473ffffffffffffffffffffffffffffffffffffffff1673ffffffffffffffffffffffffffffffffffffffff1681526020019081526020016000206000838152602001908152602001600020604051806040016040529081600082015481526020016001820160009054906101000a900473ffffffffffffffffffffffffffffffffffffffff1673ffffffffffffffffffffffffffffffffffffffff1673ffffffffffffffffffffffffffffffffffffffff168152505090506000816000015111156106155782826040517f4a5568d500000000000000000000000000000000000000000000000000000000815260040161060c929190611bcf565b60405180910390fd5b858533600083905060008173ffffffffffffffffffffffffffffffffffffffff16636352211e856040518263ffffffff1660e01b81526004016106589190611cea565b60206040518083038186803b15801561067057600080fd5b505afa158015610684573d6000803e3d6000fd5b505050506040513d601f19601f820116820180604052508101906106a8919061194e565b90508073ffffffffffffffffffffffffffffffffffffffff168373ffffffffffffffffffffffffffffffffffffffff161461070f576040517f30cd747100000000000000000000000000000000000000000000000000000000815260040160405180910390fd5b60008911610749576040517fe1abbfc500000000000000000000000000000000000000000000000000000000815260040160405180910390fd5b60008b90503073ffffffffffffffffffffffffffffffffffffffff168173ffffffffffffffffffffffffffffffffffffffff1663081812fc8d6040518263ffffffff1660e01b815260040161079e9190611cea565b60206040518083038186803b1580156107b657600080fd5b505afa1580156107ca573d6000803e3d6000fd5b505050506040513d601f19601f820116820180604052508101906107ee919061194e565b73ffffffffffffffffffffffffffffffffffffffff161461083b576040517f4be3a2c500000000000000000000000000000000000000000000000000000000815260040160405180910390fd5b60405180604001604052808b81526020013373ffffffffffffffffffffffffffffffffffffffff16815250600460008e73ffffffffffffffffffffffffffffffffffffffff1673ffffffffffffffffffffffffffffffffffffffff16815260200190815260200160002060008d81526020019081526020016000206000820151816000015560208201518160010160006101000a81548173ffffffffffffffffffffffffffffffffffffffff021916908373ffffffffffffffffffffffffffffffffffffffff1602179055509050508a8c73ffffffffffffffffffffffffffffffffffffffff163373ffffffffffffffffffffffffffffffffffffffff167fd547e933094f12a9159076970143ebe73234e64480317844b0dcb36117116de48d6040516109689190611cea565b60405180910390a4505050505050505050505050565b6000600160009054906101000a900473ffffffffffffffffffffffffffffffffffffffff16905090565b6000600560003373ffffffffffffffffffffffffffffffffffffffff1673ffffffffffffffffffffffffffffffffffffffff16815260200190815260200160002054905060008111610a26576040517fc4d8fa8700000000000000000000000000000000000000000000000000000000815260040160405180910390fd5b6000600560003373ffffffffffffffffffffffffffffffffffffffff1673ffffffffffffffffffffffffffffffffffffffff1681526020019081526020016000208190555060003373ffffffffffffffffffffffffffffffffffffffff1682604051610a9190611b68565b60006040518083038185875af1925050503d8060008114610ace576040519150601f19603f3d011682016040523d82523d6000602084013e610ad3565b606091505b5050905080610b17576040517f08c379a0000000000000000000000000000000000000000000000000000000008152600401610b0e90611c6f565b60405180910390fd5b5050565b81816000600460008473ffffffffffffffffffffffffffffffffffffffff1673ffffffffffffffffffffffffffffffffffffffff1681526020019081526020016000206000838152602001908152602001600020604051806040016040529081600082015481526020016001820160009054906101000a900473ffffffffffffffffffffffffffffffffffffffff1673ffffffffffffffffffffffffffffffffffffffff1673ffffffffffffffffffffffffffffffffffffffff168152505090506000816000015111610c275782826040517f6831488c000000000000000000000000000000000000000000000000000000008152600401610c1e929190611bcf565b60405180910390fd5b848433600083905060008173ffffffffffffffffffffffffffffffffffffffff16636352211e856040518263ffffffff1660e01b8152600401610c6a9190611cea565b60206040518083038186803b158015610c8257600080fd5b505afa158015610c96573d6000803e3d6000fd5b505050506040513d601f19601f82011682018060405250810190610cba919061194e565b90508073ffffffffffffffffffffffffffffffffffffffff168373ffffffffffffffffffffffffffffffffffffffff161415610d22576040517f65b023fd00000000000000000000000000000000000000000000000000000000815260040160405180910390fd5b60026000541415610d68576040517f08c379a0000000000000000000000000000000000000000000000000000000008152600401610d5f90611caf565b60405180910390fd5b60026000819055506000600460008c73ffffffffffffffffffffffffffffffffffffffff1673ffffffffffffffffffffffffffffffffffffffff16815260200190815260200160002060008b8152602001908152602001600020604051806040016040529081600082015481526020016001820160009054906101000a900473ffffffffffffffffffffffffffffffffffffffff1673ffffffffffffffffffffffffffffffffffffffff1673ffffffffffffffffffffffffffffffffffffffff1681525050905060006127106002548360000151610e469190611da8565b610e509190611d77565b90508160000151341015610ea3578b8b83600001516040517f7c934565000000000000000000000000000000000000000000000000000000008152600401610e9a93929190611bf8565b60405180910390fd5b8060036000828254610eb59190611d21565b925050819055508034610ec89190611e02565b60056000846020015173ffffffffffffffffffffffffffffffffffffffff1673ffffffffffffffffffffffffffffffffffffffff1681526020019081526020016000206000828254610f1a9190611d21565b92505081905550600460008d73ffffffffffffffffffffffffffffffffffffffff1673ffffffffffffffffffffffffffffffffffffffff16815260200190815260200160002060008c81526020019081526020016000206000808201600090556001820160006101000a81549073ffffffffffffffffffffffffffffffffffffffff021916905550508b73ffffffffffffffffffffffffffffffffffffffff166342842e0e8360200151338e6040518463ffffffff1660e01b8152600401610fe493929190611b98565b600060405180830381600087803b158015610ffe57600080fd5b505af1158015611012573d6000803e3d6000fd5b505050508a8c73ffffffffffffffffffffffffffffffffffffffff163373ffffffffffffffffffffffffffffffffffffffff167f263223b1dd81e51054a4e6f791d45a4a1ddb4aadcd93a2dfd892615c3fdac18785600001516040516110789190611cea565b60405180910390a45050600160008190555050505050505050505050565b818133600083905060008173ffffffffffffffffffffffffffffffffffffffff16636352211e856040518263ffffffff1660e01b81526004016110d99190611cea565b60206040518083038186803b1580156110f157600080fd5b505afa158015611105573d6000803e3d6000fd5b505050506040513d601f19601f82011682018060405250810190611129919061194e565b90508073ffffffffffffffffffffffffffffffffffffffff168373ffffffffffffffffffffffffffffffffffffffff1614611190576040517f30cd747100000000000000000000000000000000000000000000000000000000815260040160405180910390fd5b86866000600460008473ffffffffffffffffffffffffffffffffffffffff1673ffffffffffffffffffffffffffffffffffffffff1681526020019081526020016000206000838152602001908152602001600020604051806040016040529081600082015481526020016001820160009054906101000a900473ffffffffffffffffffffffffffffffffffffffff1673ffffffffffffffffffffffffffffffffffffffff1673ffffffffffffffffffffffffffffffffffffffff16815250509050600081600001511161129c5782826040517f6831488c000000000000000000000000000000000000000000000000000000008152600401611293929190611bcf565b60405180910390fd5b600460008b73ffffffffffffffffffffffffffffffffffffffff1673ffffffffffffffffffffffffffffffffffffffff16815260200190815260200160002060008a81526020019081526020016000206000808201600090556001820160006101000a81549073ffffffffffffffffffffffffffffffffffffffff02191690555050888a73ffffffffffffffffffffffffffffffffffffffff163373ffffffffffffffffffffffffffffffffffffffff167f9ba1a3cb55ce8d63d072a886f94d2a744f50cddf82128e897d0661f5ec62315860405160405180910390a450505050505050505050565b61138d61176a565b600073ffffffffffffffffffffffffffffffffffffffff168173ffffffffffffffffffffffffffffffffffffffff1614156113fd576040517f08c379a00000000000000000000000000000000000000000000000000000000081526004016113f490611c4f565b60405180910390fd5b611406816117e8565b50565b82826000600460008473ffffffffffffffffffffffffffffffffffffffff1673ffffffffffffffffffffffffffffffffffffffff1681526020019081526020016000206000838152602001908152602001600020604051806040016040529081600082015481526020016001820160009054906101000a900473ffffffffffffffffffffffffffffffffffffffff1673ffffffffffffffffffffffffffffffffffffffff1673ffffffffffffffffffffffffffffffffffffffff1681525050905060008160000151116115155782826040517f6831488c00000000000000000000000000000000000000000000000000000000815260040161150c929190611bcf565b60405180910390fd5b6002600054141561155b576040517f08c379a000000000000000000000000000000000000000000000000000000000815260040161155290611caf565b60405180910390fd5b6002600081905550858533600083905060008173ffffffffffffffffffffffffffffffffffffffff16636352211e856040518263ffffffff1660e01b81526004016115a69190611cea565b60206040518083038186803b1580156115be57600080fd5b505afa1580156115d2573d6000803e3d6000fd5b505050506040513d601f19601f820116820180604052508101906115f6919061194e565b90508073ffffffffffffffffffffffffffffffffffffffff168373ffffffffffffffffffffffffffffffffffffffff161461165d576040517f30cd747100000000000000000000000000000000000000000000000000000000815260040160405180910390fd5b60008911611697576040517fe1abbfc500000000000000000000000000000000000000000000000000000000815260040160405180910390fd5b88600460008d73ffffffffffffffffffffffffffffffffffffffff1673ffffffffffffffffffffffffffffffffffffffff16815260200190815260200160002060008c815260200190815260200160002060000181905550898b73ffffffffffffffffffffffffffffffffffffffff163373ffffffffffffffffffffffffffffffffffffffff167fd547e933094f12a9159076970143ebe73234e64480317844b0dcb36117116de48c60405161174d9190611cea565b60405180910390a450505050506001600081905550505050505050565b6117726118ae565b73ffffffffffffffffffffffffffffffffffffffff1661179061097e565b73ffffffffffffffffffffffffffffffffffffffff16146117e6576040517f08c379a00000000000000000000000000000000000000000000000000000000081526004016117dd90611c8f565b60405180910390fd5b565b6000600160009054906101000a900473ffffffffffffffffffffffffffffffffffffffff16905081600160006101000a81548173ffffffffffffffffffffffffffffffffffffffff021916908373ffffffffffffffffffffffffffffffffffffffff1602179055508173ffffffffffffffffffffffffffffffffffffffff168173ffffffffffffffffffffffffffffffffffffffff167f8be0079c531659141344cd1fd0a4f28419497f9722a3daafe3b4186f6b6457e060405160405180910390a35050565b600033905090565b604051806040016040528060008152602001600073ffffffffffffffffffffffffffffffffffffffff1681525090565b6000813590506118f581611fc6565b92915050565b60008151905061190a81611fc6565b92915050565b60008135905061191f81611fdd565b92915050565b60006020828403121561193757600080fd5b6000611945848285016118e6565b91505092915050565b60006020828403121561196057600080fd5b600061196e848285016118fb565b91505092915050565b6000806040838503121561198a57600080fd5b6000611998858286016118e6565b92505060206119a985828601611910565b9150509250929050565b6000806000606084860312156119c857600080fd5b60006119d6868287016118e6565b93505060206119e786828701611910565b92505060406119f886828701611910565b9150509250925092565b600060208284031215611a1457600080fd5b6000611a2284828501611910565b91505092915050565b611a3481611e36565b82525050565b611a4381611e36565b82525050565b6000611a56601283611d10565b9150611a6182611ed0565b602082019050919050565b6000611a79602683611d10565b9150611a8482611ef9565b604082019050919050565b6000611a9c600f83611d10565b9150611aa782611f48565b602082019050919050565b6000611abf602083611d10565b9150611aca82611f71565b602082019050919050565b6000611ae2600083611d05565b9150611aed82611f9a565b600082019050919050565b6000611b05601f83611d10565b9150611b1082611f9d565b602082019050919050565b604082016000820151611b316000850182611b4a565b506020820151611b446020850182611a2b565b50505050565b611b5381611e68565b82525050565b611b6281611e68565b82525050565b6000611b7382611ad5565b9150819050919050565b6000602082019050611b926000830184611a3a565b92915050565b6000606082019050611bad6000830186611a3a565b611bba6020830185611a3a565b611bc76040830184611b59565b949350505050565b6000604082019050611be46000830185611a3a565b611bf16020830184611b59565b9392505050565b6000606082019050611c0d6000830186611a3a565b611c1a6020830185611b59565b611c276040830184611b59565b949350505050565b60006020820190508181036000830152611c4881611a49565b9050919050565b60006020820190508181036000830152611c6881611a6c565b9050919050565b60006020820190508181036000830152611c8881611a8f565b9050919050565b60006020820190508181036000830152611ca881611ab2565b9050919050565b60006020820190508181036000830152611cc881611af8565b9050919050565b6000604082019050611ce46000830184611b1b565b92915050565b6000602082019050611cff6000830184611b59565b92915050565b600081905092915050565b600082825260208201905092915050565b6000611d2c82611e68565b9150611d3783611e68565b9250827fffffffffffffffffffffffffffffffffffffffffffffffffffffffffffffffff03821115611d6c57611d6b611e72565b5b828201905092915050565b6000611d8282611e68565b9150611d8d83611e68565b925082611d9d57611d9c611ea1565b5b828204905092915050565b6000611db382611e68565b9150611dbe83611e68565b9250817fffffffffffffffffffffffffffffffffffffffffffffffffffffffffffffffff0483118215151615611df757611df6611e72565b5b828202905092915050565b6000611e0d82611e68565b9150611e1883611e68565b925082821015611e2b57611e2a611e72565b5b828203905092915050565b6000611e4182611e48565b9050919050565b600073ffffffffffffffffffffffffffffffffffffffff82169050919050565b6000819050919050565b7f4e487b7100000000000000000000000000000000000000000000000000000000600052601160045260246000fd5b7f4e487b7100000000000000000000000000000000000000000000000000000000600052601260045260246000fd5b7f4661696c656420746f2077697468647261770000000000000000000000000000600082015250565b7f4f776e61626c653a206e6577206f776e657220697320746865207a65726f206160008201527f6464726573730000000000000000000000000000000000000000000000000000602082015250565b7f5472616e73666572206661696c65640000000000000000000000000000000000600082015250565b7f4f776e61626c653a2063616c6c6572206973206e6f7420746865206f776e6572600082015250565b50565b7f5265656e7472616e637947756172643a207265656e7472616e742063616c6c00600082015250565b611fcf81611e36565b8114611fda57600080fd5b50565b611fe681611e68565b8114611ff157600080fd5b5056fea264697066735822122076755b0a55ef8a721e9a52c2c0ae697d94bd711e1d21d1b0d96058a746bc167364736f6c63430008040033",
  "linkReferences": {},
  "deployedLinkReferences": {}
}