{
  "_format": "hh-sol-artifact-1",
  "contractName": "Paramo",
  "sourceName": "contracts/Paramo.sol",
  "abi": [
    {
      "inputs": [
        {
          "internalType": "string",
          "name": "_name",
          "type": "string"
        },
        {
          "internalType": "string",
          "name": "_symbol",
          "type": "string"
        },
        {
          "internalType": "string",
          "name": "_uri",
          "type": "string"
        },
        {
          "internalType": "uint256",
          "name": "price",
          "type": "uint256"
        },
        {
          "internalType": "uint256",
          "name": "maxSupply",
          "type": "uint256"
        }
      ],
      "stateMutability": "payable",
      "type": "constructor"
    },
    {
      "anonymous": false,
      "inputs": [
        {
          "indexed": true,
          "internalType": "address",
          "name": "owner",
          "type": "address"
        },
        {
          "indexed": true,
          "internalType": "address",
          "name": "approved",
          "type": "address"
        },
        {
          "indexed": true,
          "internalType": "uint256",
          "name": "tokenId",
          "type": "uint256"
        }
      ],
      "name": "Approval",
      "type": "event"
    },
    {
      "anonymous": false,
      "inputs": [
        {
          "indexed": true,
          "internalType": "address",
          "name": "owner",
          "type": "address"
        },
        {
          "indexed": true,
          "internalType": "address",
          "name": "operator",
          "type": "address"
        },
        {
          "indexed": false,
          "internalType": "bool",
          "name": "approved",
          "type": "bool"
        }
      ],
      "name": "ApprovalForAll",
      "type": "event"
    },
    {
      "anonymous": false,
      "inputs": [
        {
          "indexed": true,
          "internalType": "address",
          "name": "previousOwner",
          "type": "address"
        },
        {
          "indexed": true,
          "internalType": "address",
          "name": "newOwner",
          "type": "address"
        }
      ],
      "name": "OwnershipTransferred",
      "type": "event"
    },
    {
      "anonymous": false,
      "inputs": [
        {
          "indexed": true,
          "internalType": "address",
          "name": "from",
          "type": "address"
        },
        {
          "indexed": true,
          "internalType": "address",
          "name": "to",
          "type": "address"
        },
        {
          "indexed": true,
          "internalType": "uint256",
          "name": "tokenId",
          "type": "uint256"
        }
      ],
      "name": "Transfer",
      "type": "event"
    },
    {
      "inputs": [],
      "name": "MAX_SUPPLY",
      "outputs": [
        {
          "internalType": "uint256",
          "name": "",
          "type": "uint256"
        }
      ],
      "stateMutability": "view",
      "type": "function"
    },
    {
      "inputs": [
        {
          "internalType": "address",
          "name": "to",
          "type": "address"
        },
        {
          "internalType": "uint256",
          "name": "tokenId",
          "type": "uint256"
        }
      ],
      "name": "approve",
      "outputs": [],
      "stateMutability": "nonpayable",
      "type": "function"
    },
    {
      "inputs": [
        {
          "internalType": "address",
          "name": "owner",
          "type": "address"
        }
      ],
      "name": "balanceOf",
      "outputs": [
        {
          "internalType": "uint256",
          "name": "",
          "type": "uint256"
        }
      ],
      "stateMutability": "view",
      "type": "function"
    },
    {
      "inputs": [
        {
          "internalType": "uint256",
          "name": "tokenId",
          "type": "uint256"
        }
      ],
      "name": "burn",
      "outputs": [],
      "stateMutability": "nonpayable",
      "type": "function"
    },
    {
      "inputs": [],
      "name": "currentPrice",
      "outputs": [
        {
          "internalType": "uint256",
          "name": "",
          "type": "uint256"
        }
      ],
      "stateMutability": "view",
      "type": "function"
    },
    {
      "inputs": [
        {
          "internalType": "uint256",
          "name": "tokenId",
          "type": "uint256"
        }
      ],
      "name": "getApproved",
      "outputs": [
        {
          "internalType": "address",
          "name": "",
          "type": "address"
        }
      ],
      "stateMutability": "view",
      "type": "function"
    },
    {
      "inputs": [
        {
          "internalType": "address",
          "name": "owner",
          "type": "address"
        },
        {
          "internalType": "address",
          "name": "operator",
          "type": "address"
        }
      ],
      "name": "isApprovedForAll",
      "outputs": [
        {
          "internalType": "bool",
          "name": "",
          "type": "bool"
        }
      ],
      "stateMutability": "view",
      "type": "function"
    },
    {
      "inputs": [
        {
          "internalType": "uint256",
          "name": "amount",
          "type": "uint256"
        }
      ],
      "name": "mint",
      "outputs": [],
      "stateMutability": "payable",
      "type": "function"
    },
    {
      "inputs": [],
      "name": "name",
      "outputs": [
        {
          "internalType": "string",
          "name": "",
          "type": "string"
        }
      ],
      "stateMutability": "view",
      "type": "function"
    },
    {
      "inputs": [],
      "name": "owner",
      "outputs": [
        {
          "internalType": "address",
          "name": "",
          "type": "address"
        }
      ],
      "stateMutability": "view",
      "type": "function"
    },
    {
      "inputs": [
        {
          "internalType": "uint256",
          "name": "tokenId",
          "type": "uint256"
        }
      ],
      "name": "ownerOf",
      "outputs": [
        {
          "internalType": "address",
          "name": "",
          "type": "address"
        }
      ],
      "stateMutability": "view",
      "type": "function"
    },
    {
      "inputs": [],
      "name": "renounceOwnership",
      "outputs": [],
      "stateMutability": "nonpayable",
      "type": "function"
    },
    {
      "inputs": [
        {
          "internalType": "address",
          "name": "from",
          "type": "address"
        },
        {
          "internalType": "address",
          "name": "to",
          "type": "address"
        },
        {
          "internalType": "uint256",
          "name": "tokenId",
          "type": "uint256"
        }
      ],
      "name": "safeTransferFrom",
      "outputs": [],
      "stateMutability": "nonpayable",
      "type": "function"
    },
    {
      "inputs": [
        {
          "internalType": "address",
          "name": "from",
          "type": "address"
        },
        {
          "internalType": "address",
          "name": "to",
          "type": "address"
        },
        {
          "internalType": "uint256",
          "name": "tokenId",
          "type": "uint256"
        },
        {
          "internalType": "bytes",
          "name": "data",
          "type": "bytes"
        }
      ],
      "name": "safeTransferFrom",
      "outputs": [],
      "stateMutability": "nonpayable",
      "type": "function"
    },
    {
      "inputs": [],
      "name": "saleIsActive",
      "outputs": [
        {
          "internalType": "bool",
          "name": "",
          "type": "bool"
        }
      ],
      "stateMutability": "view",
      "type": "function"
    },
    {
      "inputs": [
        {
          "internalType": "address",
          "name": "operator",
          "type": "address"
        },
        {
          "internalType": "bool",
          "name": "approved",
          "type": "bool"
        }
      ],
      "name": "setApprovalForAll",
      "outputs": [],
      "stateMutability": "nonpayable",
      "type": "function"
    },
    {
      "inputs": [
        {
          "internalType": "uint256",
          "name": "price",
          "type": "uint256"
        }
      ],
      "name": "setCurrentPrice",
      "outputs": [],
      "stateMutability": "nonpayable",
      "type": "function"
    },
    {
      "inputs": [
        {
          "internalType": "bool",
          "name": "isActive",
          "type": "bool"
        }
      ],
      "name": "setSaleIsActive",
      "outputs": [],
      "stateMutability": "nonpayable",
      "type": "function"
    },
    {
      "inputs": [
        {
          "internalType": "bytes4",
          "name": "interfaceId",
          "type": "bytes4"
        }
      ],
      "name": "supportsInterface",
      "outputs": [
        {
          "internalType": "bool",
          "name": "",
          "type": "bool"
        }
      ],
      "stateMutability": "view",
      "type": "function"
    },
    {
      "inputs": [],
      "name": "symbol",
      "outputs": [
        {
          "internalType": "string",
          "name": "",
          "type": "string"
        }
      ],
      "stateMutability": "view",
      "type": "function"
    },
    {
      "inputs": [
        {
          "internalType": "uint256",
          "name": "index",
          "type": "uint256"
        }
      ],
      "name": "tokenByIndex",
      "outputs": [
        {
          "internalType": "uint256",
          "name": "",
          "type": "uint256"
        }
      ],
      "stateMutability": "view",
      "type": "function"
    },
    {
      "inputs": [
        {
          "internalType": "address",
          "name": "owner",
          "type": "address"
        },
        {
          "internalType": "uint256",
          "name": "index",
          "type": "uint256"
        }
      ],
      "name": "tokenOfOwnerByIndex",
      "outputs": [
        {
          "internalType": "uint256",
          "name": "",
          "type": "uint256"
        }
      ],
      "stateMutability": "view",
      "type": "function"
    },
    {
      "inputs": [
        {
          "internalType": "uint256",
          "name": "tokenId",
          "type": "uint256"
        }
      ],
      "name": "tokenURI",
      "outputs": [
        {
          "internalType": "string",
          "name": "",
          "type": "string"
        }
      ],
      "stateMutability": "view",
      "type": "function"
    },
    {
      "inputs": [],
      "name": "totalSupply",
      "outputs": [
        {
          "internalType": "uint256",
          "name": "",
          "type": "uint256"
        }
      ],
      "stateMutability": "view",
      "type": "function"
    },
    {
      "inputs": [
        {
          "internalType": "address",
          "name": "from",
          "type": "address"
        },
        {
          "internalType": "address",
          "name": "to",
          "type": "address"
        },
        {
          "internalType": "uint256",
          "name": "tokenId",
          "type": "uint256"
        }
      ],
      "name": "transferFrom",
      "outputs": [],
      "stateMutability": "nonpayable",
      "type": "function"
    },
    {
      "inputs": [
        {
          "internalType": "address",
          "name": "newOwner",
          "type": "address"
        }
      ],
      "name": "transferOwnership",
      "outputs": [],
      "stateMutability": "nonpayable",
      "type": "function"
    },
    {
      "inputs": [
        {
          "internalType": "uint256",
          "name": "_tokenId",
          "type": "uint256"
        },
        {
          "internalType": "string",
          "name": "uri",
          "type": "string"
        }
      ],
      "name": "updateURI",
      "outputs": [],
      "stateMutability": "nonpayable",
      "type": "function"
    },
    {
      "inputs": [],
      "name": "withdraw",
      "outputs": [],
      "stateMutability": "nonpayable",
      "type": "function"
    }
  ],
  "bytecode": "0x60a06040526001600b60146101000a81548160ff02191690831515021790555060405162004345380380620043458339818101604052810190620000449190620002d4565b848481600090805190602001906200005e9291906200019b565b508060019080519060200190620000779291906200019b565b5050506200009a6200008e620000cd60201b60201c565b620000d560201b60201c565b82600c9080519060200190620000b29291906200019b565b5081600d819055508060808181525050505050505062000535565b600033905090565b6000600b60009054906101000a900473ffffffffffffffffffffffffffffffffffffffff16905081600b60006101000a81548173ffffffffffffffffffffffffffffffffffffffff021916908373ffffffffffffffffffffffffffffffffffffffff1602179055508173ffffffffffffffffffffffffffffffffffffffff168173ffffffffffffffffffffffffffffffffffffffff167f8be0079c531659141344cd1fd0a4f28419497f9722a3daafe3b4186f6b6457e060405160405180910390a35050565b828054620001a99062000440565b90600052602060002090601f016020900481019282620001cd576000855562000219565b82601f10620001e857805160ff191683800117855562000219565b8280016001018555821562000219579182015b8281111562000218578251825591602001919060010190620001fb565b5b5090506200022891906200022c565b5090565b5b80821115620002475760008160009055506001016200022d565b5090565b6000620002626200025c84620003ca565b620003a1565b9050828152602081018484840111156200027b57600080fd5b620002888482856200040a565b509392505050565b600082601f830112620002a257600080fd5b8151620002b48482602086016200024b565b91505092915050565b600081519050620002ce816200051b565b92915050565b600080600080600060a08688031215620002ed57600080fd5b600086015167ffffffffffffffff8111156200030857600080fd5b620003168882890162000290565b955050602086015167ffffffffffffffff8111156200033457600080fd5b620003428882890162000290565b945050604086015167ffffffffffffffff8111156200036057600080fd5b6200036e8882890162000290565b93505060606200038188828901620002bd565b92505060806200039488828901620002bd565b9150509295509295909350565b6000620003ad620003c0565b9050620003bb828262000476565b919050565b6000604051905090565b600067ffffffffffffffff821115620003e857620003e7620004db565b5b620003f3826200050a565b9050602081019050919050565b6000819050919050565b60005b838110156200042a5780820151818401526020810190506200040d565b838111156200043a576000848401525b50505050565b600060028204905060018216806200045957607f821691505b6020821081141562000470576200046f620004ac565b5b50919050565b62000481826200050a565b810181811067ffffffffffffffff82111715620004a357620004a2620004db565b5b80604052505050565b7f4e487b7100000000000000000000000000000000000000000000000000000000600052602260045260246000fd5b7f4e487b7100000000000000000000000000000000000000000000000000000000600052604160045260246000fd5b6000601f19601f8301169050919050565b620005268162000400565b81146200053257600080fd5b50565b608051613ded6200055860003960008181610a180152610e4f0152613ded6000f3fe6080604052600436106101b75760003560e01c80634f6ccce7116100ec578063a0712d681161008a578063c87b56dd11610064578063c87b56dd146105e7578063e985e9c514610624578063eb8d244414610661578063f2fde38b1461068c576101b7565b8063a0712d6814610579578063a22cb46514610595578063b88d4fde146105be576101b7565b8063715018a6116100c6578063715018a6146104e15780638da5cb5b146104f857806395d89b41146105235780639d1b464a1461054e576101b7565b80634f6ccce71461042a5780636352211e1461046757806370a08231146104a4576101b7565b806323b872dd1161015957806332cb6b0c1161013357806332cb6b0c146103965780633ccfd60b146103c157806342842e0e146103d857806342966c6814610401576101b7565b806323b872dd146103075780632f745c591461033057806331d41c691461036d576101b7565b8063081812fc11610195578063081812fc1461024d578063095ea7b31461028a57806318160ddd146102b357806318b20071146102de576101b7565b806301ffc9a7146101bc57806302c88989146101f957806306fdde0314610222575b600080fd5b3480156101c857600080fd5b506101e360048036038101906101de9190612cce565b6106b5565b6040516101f09190613191565b60405180910390f35b34801561020557600080fd5b50610220600480360381019061021b9190612ca5565b6106c7565b005b34801561022e57600080fd5b506102376106ec565b60405161024491906131ac565b60405180910390f35b34801561025957600080fd5b50610274600480360381019061026f9190612d20565b61077e565b604051610281919061312a565b60405180910390f35b34801561029657600080fd5b506102b160048036038101906102ac9190612c69565b6107c4565b005b3480156102bf57600080fd5b506102c86108dc565b6040516102d5919061342e565b60405180910390f35b3480156102ea57600080fd5b5061030560048036038101906103009190612d20565b6108e9565b005b34801561031357600080fd5b5061032e60048036038101906103299190612b63565b6108fb565b005b34801561033c57600080fd5b5061035760048036038101906103529190612c69565b61095b565b604051610364919061342e565b60405180910390f35b34801561037957600080fd5b50610394600480360381019061038f9190612d49565b610a00565b005b3480156103a257600080fd5b506103ab610a16565b6040516103b8919061342e565b60405180910390f35b3480156103cd57600080fd5b506103d6610a3a565b005b3480156103e457600080fd5b506103ff60048036038101906103fa9190612b63565b610a91565b005b34801561040d57600080fd5b5061042860048036038101906104239190612d20565b610ab1565b005b34801561043657600080fd5b50610451600480360381019061044c9190612d20565b610b0d565b60405161045e919061342e565b60405180910390f35b34801561047357600080fd5b5061048e60048036038101906104899190612d20565b610ba4565b60405161049b919061312a565b60405180910390f35b3480156104b057600080fd5b506104cb60048036038101906104c69190612afe565b610c56565b6040516104d8919061342e565b60405180910390f35b3480156104ed57600080fd5b506104f6610d0e565b005b34801561050457600080fd5b5061050d610d22565b60405161051a919061312a565b60405180910390f35b34801561052f57600080fd5b50610538610d4c565b60405161054591906131ac565b60405180910390f35b34801561055a57600080fd5b50610563610dde565b604051610570919061342e565b60405180910390f35b610593600480360381019061058e9190612d20565b610de4565b005b3480156105a157600080fd5b506105bc60048036038101906105b79190612c2d565b610fe0565b005b3480156105ca57600080fd5b506105e560048036038101906105e09190612bb2565b610ff6565b005b3480156105f357600080fd5b5061060e60048036038101906106099190612d20565b611058565b60405161061b91906131ac565b60405180910390f35b34801561063057600080fd5b5061064b60048036038101906106469190612b27565b61106a565b6040516106589190613191565b60405180910390f35b34801561066d57600080fd5b506106766110fe565b6040516106839190613191565b60405180910390f35b34801561069857600080fd5b506106b360048036038101906106ae9190612afe565b611111565b005b60006106c082611195565b9050919050565b6106cf61120f565b80600b60146101000a81548160ff02191690831515021790555050565b6060600080546106fb906136de565b80601f0160208091040260200160405190810160405280929190818152602001828054610727906136de565b80156107745780601f1061074957610100808354040283529160200191610774565b820191906000526020600020905b81548152906001019060200180831161075757829003601f168201915b5050505050905090565b60006107898261128d565b6004600083815260200190815260200160002060009054906101000a900473ffffffffffffffffffffffffffffffffffffffff169050919050565b60006107cf82610ba4565b90508073ffffffffffffffffffffffffffffffffffffffff168373ffffffffffffffffffffffffffffffffffffffff161415610840576040517f08c379a0000000000000000000000000000000000000000000000000000000008152600401610837906133ce565b60405180910390fd5b8073ffffffffffffffffffffffffffffffffffffffff1661085f6112d8565b73ffffffffffffffffffffffffffffffffffffffff16148061088e575061088d816108886112d8565b61106a565b5b6108cd576040517f08c379a00000000000000000000000000000000000000000000000000000000081526004016108c49061332e565b60405180910390fd5b6108d783836112e0565b505050565b6000600880549050905090565b6108f161120f565b80600d8190555050565b61090c6109066112d8565b82611399565b61094b576040517f08c379a00000000000000000000000000000000000000000000000000000000081526004016109429061340e565b60405180910390fd5b61095683838361142e565b505050565b600061096683610c56565b82106109a7576040517f08c379a000000000000000000000000000000000000000000000000000000000815260040161099e906131ce565b60405180910390fd5b600660008473ffffffffffffffffffffffffffffffffffffffff1673ffffffffffffffffffffffffffffffffffffffff168152602001908152602001600020600083815260200190815260200160002054905092915050565b610a0861120f565b610a128282611695565b5050565b7f000000000000000000000000000000000000000000000000000000000000000081565b610a4261120f565b60004790503373ffffffffffffffffffffffffffffffffffffffff166108fc829081150290604051600060405180830381858888f19350505050158015610a8d573d6000803e3d6000fd5b5050565b610aac83838360405180602001604052806000815250610ff6565b505050565b610ac2610abc6112d8565b82611399565b610b01576040517f08c379a0000000000000000000000000000000000000000000000000000000008152600401610af89061340e565b60405180910390fd5b610b0a81611709565b50565b6000610b176108dc565b8210610b58576040517f08c379a0000000000000000000000000000000000000000000000000000000008152600401610b4f906133ee565b60405180910390fd5b60088281548110610b92577f4e487b7100000000000000000000000000000000000000000000000000000000600052603260045260246000fd5b90600052602060002001549050919050565b6000806002600084815260200190815260200160002060009054906101000a900473ffffffffffffffffffffffffffffffffffffffff169050600073ffffffffffffffffffffffffffffffffffffffff168173ffffffffffffffffffffffffffffffffffffffff161415610c4d576040517f08c379a0000000000000000000000000000000000000000000000000000000008152600401610c449061338e565b60405180910390fd5b80915050919050565b60008073ffffffffffffffffffffffffffffffffffffffff168273ffffffffffffffffffffffffffffffffffffffff161415610cc7576040517f08c379a0000000000000000000000000000000000000000000000000000000008152600401610cbe906132ce565b60405180910390fd5b600360008373ffffffffffffffffffffffffffffffffffffffff1673ffffffffffffffffffffffffffffffffffffffff168152602001908152602001600020549050919050565b610d1661120f565b610d206000611715565b565b6000600b60009054906101000a900473ffffffffffffffffffffffffffffffffffffffff16905090565b606060018054610d5b906136de565b80601f0160208091040260200160405190810160405280929190818152602001828054610d87906136de565b8015610dd45780601f10610da957610100808354040283529160200191610dd4565b820191906000526020600020905b815481529060010190602001808311610db757829003601f168201915b5050505050905090565b600d5481565b6000610dee6108dc565b90506000610dfc600e6117db565b9050600b60149054906101000a900460ff16610e4d576040517f08c379a0000000000000000000000000000000000000000000000000000000008152600401610e44906133ae565b60405180910390fd5b7f00000000000000000000000000000000000000000000000000000000000000008383610e7a9190613513565b1115610ebb576040517f08c379a0000000000000000000000000000000000000000000000000000000008152600401610eb29061322e565b60405180910390fd5b3483600d54610eca919061359a565b14610f0a576040517f08c379a0000000000000000000000000000000000000000000000000000000008152600401610f019061330e565b60405180910390fd5b60005b83811015610fda57610f1f600e6117db565b9150610f2b33836117e9565b610fbf82600c8054610f3c906136de565b80601f0160208091040260200160405190810160405280929190818152602001828054610f68906136de565b8015610fb55780601f10610f8a57610100808354040283529160200191610fb5565b820191906000526020600020905b815481529060010190602001808311610f9857829003601f168201915b5050505050611695565b610fc9600e611807565b80610fd390613741565b9050610f0d565b50505050565b610ff2610feb6112d8565b838361181d565b5050565b6110076110016112d8565b83611399565b611046576040517f08c379a000000000000000000000000000000000000000000000000000000000815260040161103d9061340e565b60405180910390fd5b6110528484848461198a565b50505050565b6060611063826119e6565b9050919050565b6000600560008473ffffffffffffffffffffffffffffffffffffffff1673ffffffffffffffffffffffffffffffffffffffff16815260200190815260200160002060008373ffffffffffffffffffffffffffffffffffffffff1673ffffffffffffffffffffffffffffffffffffffff16815260200190815260200160002060009054906101000a900460ff16905092915050565b600b60149054906101000a900460ff1681565b61111961120f565b600073ffffffffffffffffffffffffffffffffffffffff168173ffffffffffffffffffffffffffffffffffffffff161415611189576040517f08c379a00000000000000000000000000000000000000000000000000000000081526004016111809061320e565b60405180910390fd5b61119281611715565b50565b60007f780e9d63000000000000000000000000000000000000000000000000000000007bffffffffffffffffffffffffffffffffffffffffffffffffffffffff1916827bffffffffffffffffffffffffffffffffffffffffffffffffffffffff19161480611208575061120782611af9565b5b9050919050565b6112176112d8565b73ffffffffffffffffffffffffffffffffffffffff16611235610d22565b73ffffffffffffffffffffffffffffffffffffffff161461128b576040517f08c379a00000000000000000000000000000000000000000000000000000000081526004016112829061336e565b60405180910390fd5b565b61129681611bdb565b6112d5576040517f08c379a00000000000000000000000000000000000000000000000000000000081526004016112cc9061338e565b60405180910390fd5b50565b600033905090565b816004600083815260200190815260200160002060006101000a81548173ffffffffffffffffffffffffffffffffffffffff021916908373ffffffffffffffffffffffffffffffffffffffff160217905550808273ffffffffffffffffffffffffffffffffffffffff1661135383610ba4565b73ffffffffffffffffffffffffffffffffffffffff167f8c5be1e5ebec7d5bd14f71427d1e84f3dd0314c0f7b2291e5b200ac8c7c3b92560405160405180910390a45050565b6000806113a583610ba4565b90508073ffffffffffffffffffffffffffffffffffffffff168473ffffffffffffffffffffffffffffffffffffffff1614806113e757506113e6818561106a565b5b8061142557508373ffffffffffffffffffffffffffffffffffffffff1661140d8461077e565b73ffffffffffffffffffffffffffffffffffffffff16145b91505092915050565b8273ffffffffffffffffffffffffffffffffffffffff1661144e82610ba4565b73ffffffffffffffffffffffffffffffffffffffff16146114a4576040517f08c379a000000000000000000000000000000000000000000000000000000000815260040161149b9061324e565b60405180910390fd5b600073ffffffffffffffffffffffffffffffffffffffff168273ffffffffffffffffffffffffffffffffffffffff161415611514576040517f08c379a000000000000000000000000000000000000000000000000000000000815260040161150b9061328e565b60405180910390fd5b61151f838383611c47565b61152a6000826112e0565b6001600360008573ffffffffffffffffffffffffffffffffffffffff1673ffffffffffffffffffffffffffffffffffffffff168152602001908152602001600020600082825461157a91906135f4565b925050819055506001600360008473ffffffffffffffffffffffffffffffffffffffff1673ffffffffffffffffffffffffffffffffffffffff16815260200190815260200160002060008282546115d19190613513565b92505081905550816002600083815260200190815260200160002060006101000a81548173ffffffffffffffffffffffffffffffffffffffff021916908373ffffffffffffffffffffffffffffffffffffffff160217905550808273ffffffffffffffffffffffffffffffffffffffff168473ffffffffffffffffffffffffffffffffffffffff167fddf252ad1be2c89b69c2b068fc378daa952ba7f163c4a11628f55a4df523b3ef60405160405180910390a4611690838383611c57565b505050565b61169e82611bdb565b6116dd576040517f08c379a00000000000000000000000000000000000000000000000000000000081526004016116d4906132ee565b60405180910390fd5b80600a600084815260200190815260200160002090805190602001906117049291906128e2565b505050565b61171281611c5c565b50565b6000600b60009054906101000a900473ffffffffffffffffffffffffffffffffffffffff16905081600b60006101000a81548173ffffffffffffffffffffffffffffffffffffffff021916908373ffffffffffffffffffffffffffffffffffffffff1602179055508173ffffffffffffffffffffffffffffffffffffffff168173ffffffffffffffffffffffffffffffffffffffff167f8be0079c531659141344cd1fd0a4f28419497f9722a3daafe3b4186f6b6457e060405160405180910390a35050565b600081600001549050919050565b611803828260405180602001604052806000815250611caf565b5050565b6001816000016000828254019250508190555050565b8173ffffffffffffffffffffffffffffffffffffffff168373ffffffffffffffffffffffffffffffffffffffff16141561188c576040517f08c379a0000000000000000000000000000000000000000000000000000000008152600401611883906132ae565b60405180910390fd5b80600560008573ffffffffffffffffffffffffffffffffffffffff1673ffffffffffffffffffffffffffffffffffffffff16815260200190815260200160002060008473ffffffffffffffffffffffffffffffffffffffff1673ffffffffffffffffffffffffffffffffffffffff16815260200190815260200160002060006101000a81548160ff0219169083151502179055508173ffffffffffffffffffffffffffffffffffffffff168373ffffffffffffffffffffffffffffffffffffffff167f17307eab39ab6107e8899845ad3d59bd9653f200f220920489ca2b5937696c318360405161197d9190613191565b60405180910390a3505050565b61199584848461142e565b6119a184848484611d0a565b6119e0576040517f08c379a00000000000000000000000000000000000000000000000000000000081526004016119d7906131ee565b60405180910390fd5b50505050565b60606119f18261128d565b6000600a60008481526020019081526020016000208054611a11906136de565b80601f0160208091040260200160405190810160405280929190818152602001828054611a3d906136de565b8015611a8a5780601f10611a5f57610100808354040283529160200191611a8a565b820191906000526020600020905b815481529060010190602001808311611a6d57829003601f168201915b505050505090506000611a9b611ea1565b9050600081511415611ab1578192505050611af4565b600082511115611ae6578082604051602001611ace929190613106565b60405160208183030381529060405292505050611af4565b611aef84611eb8565b925050505b919050565b60007f80ac58cd000000000000000000000000000000000000000000000000000000007bffffffffffffffffffffffffffffffffffffffffffffffffffffffff1916827bffffffffffffffffffffffffffffffffffffffffffffffffffffffff19161480611bc457507f5b5e139f000000000000000000000000000000000000000000000000000000007bffffffffffffffffffffffffffffffffffffffffffffffffffffffff1916827bffffffffffffffffffffffffffffffffffffffffffffffffffffffff1916145b80611bd45750611bd382611f20565b5b9050919050565b60008073ffffffffffffffffffffffffffffffffffffffff166002600084815260200190815260200160002060009054906101000a900473ffffffffffffffffffffffffffffffffffffffff1673ffffffffffffffffffffffffffffffffffffffff1614159050919050565b611c52838383611f8a565b505050565b505050565b611c658161209e565b6000600a60008381526020019081526020016000208054611c85906136de565b905014611cac57600a60008281526020019081526020016000206000611cab9190612968565b5b50565b611cb983836121bb565b611cc66000848484611d0a565b611d05576040517f08c379a0000000000000000000000000000000000000000000000000000000008152600401611cfc906131ee565b60405180910390fd5b505050565b6000611d2b8473ffffffffffffffffffffffffffffffffffffffff16612395565b15611e94578373ffffffffffffffffffffffffffffffffffffffff1663150b7a02611d546112d8565b8786866040518563ffffffff1660e01b8152600401611d769493929190613145565b602060405180830381600087803b158015611d9057600080fd5b505af1925050508015611dc157506040513d601f19601f82011682018060405250810190611dbe9190612cf7565b60015b611e44573d8060008114611df1576040519150601f19603f3d011682016040523d82523d6000602084013e611df6565b606091505b50600081511415611e3c576040517f08c379a0000000000000000000000000000000000000000000000000000000008152600401611e33906131ee565b60405180910390fd5b805181602001fd5b63150b7a0260e01b7bffffffffffffffffffffffffffffffffffffffffffffffffffffffff1916817bffffffffffffffffffffffffffffffffffffffffffffffffffffffff191614915050611e99565b600190505b949350505050565b606060405180602001604052806000815250905090565b6060611ec38261128d565b6000611ecd611ea1565b90506000815111611eed5760405180602001604052806000815250611f18565b80611ef7846123b8565b604051602001611f08929190613106565b6040516020818303038152906040525b915050919050565b60007f01ffc9a7000000000000000000000000000000000000000000000000000000007bffffffffffffffffffffffffffffffffffffffffffffffffffffffff1916827bffffffffffffffffffffffffffffffffffffffffffffffffffffffff1916149050919050565b611f95838383612565565b600073ffffffffffffffffffffffffffffffffffffffff168373ffffffffffffffffffffffffffffffffffffffff161415611fd857611fd38161256a565b612017565b8173ffffffffffffffffffffffffffffffffffffffff168373ffffffffffffffffffffffffffffffffffffffff16146120165761201583826125b3565b5b5b600073ffffffffffffffffffffffffffffffffffffffff168273ffffffffffffffffffffffffffffffffffffffff16141561205a5761205581612720565b612099565b8273ffffffffffffffffffffffffffffffffffffffff168273ffffffffffffffffffffffffffffffffffffffff1614612098576120978282612863565b5b5b505050565b60006120a982610ba4565b90506120b781600084611c47565b6120c26000836112e0565b6001600360008373ffffffffffffffffffffffffffffffffffffffff1673ffffffffffffffffffffffffffffffffffffffff168152602001908152602001600020600082825461211291906135f4565b925050819055506002600083815260200190815260200160002060006101000a81549073ffffffffffffffffffffffffffffffffffffffff021916905581600073ffffffffffffffffffffffffffffffffffffffff168273ffffffffffffffffffffffffffffffffffffffff167fddf252ad1be2c89b69c2b068fc378daa952ba7f163c4a11628f55a4df523b3ef60405160405180910390a46121b781600084611c57565b5050565b600073ffffffffffffffffffffffffffffffffffffffff168273ffffffffffffffffffffffffffffffffffffffff16141561222b576040517f08c379a00000000000000000000000000000000000000000000000000000000081526004016122229061334e565b60405180910390fd5b61223481611bdb565b15612274576040517f08c379a000000000000000000000000000000000000000000000000000000000815260040161226b9061326e565b60405180910390fd5b61228060008383611c47565b6001600360008473ffffffffffffffffffffffffffffffffffffffff1673ffffffffffffffffffffffffffffffffffffffff16815260200190815260200160002060008282546122d09190613513565b92505081905550816002600083815260200190815260200160002060006101000a81548173ffffffffffffffffffffffffffffffffffffffff021916908373ffffffffffffffffffffffffffffffffffffffff160217905550808273ffffffffffffffffffffffffffffffffffffffff16600073ffffffffffffffffffffffffffffffffffffffff167fddf252ad1be2c89b69c2b068fc378daa952ba7f163c4a11628f55a4df523b3ef60405160405180910390a461239160008383611c57565b5050565b6000808273ffffffffffffffffffffffffffffffffffffffff163b119050919050565b60606000821415612400576040518060400160405280600181526020017f30000000000000000000000000000000000000000000000000000000000000008152509050612560565b600082905060005b6000821461243257808061241b90613741565b915050600a8261242b9190613569565b9150612408565b60008167ffffffffffffffff811115612474577f4e487b7100000000000000000000000000000000000000000000000000000000600052604160045260246000fd5b6040519080825280601f01601f1916602001820160405280156124a65781602001600182028036833780820191505090505b5090505b60008514612559576001826124bf91906135f4565b9150600a856124ce919061378a565b60306124da9190613513565b60f81b818381518110612516577f4e487b7100000000000000000000000000000000000000000000000000000000600052603260045260246000fd5b60200101907effffffffffffffffffffffffffffffffffffffffffffffffffffffffffffff1916908160001a905350600a856125529190613569565b94506124aa565b8093505050505b919050565b505050565b6008805490506009600083815260200190815260200160002081905550600881908060018154018082558091505060019003906000526020600020016000909190919091505550565b600060016125c084610c56565b6125ca91906135f4565b90506000600760008481526020019081526020016000205490508181146126af576000600660008673ffffffffffffffffffffffffffffffffffffffff1673ffffffffffffffffffffffffffffffffffffffff168152602001908152602001600020600084815260200190815260200160002054905080600660008773ffffffffffffffffffffffffffffffffffffffff1673ffffffffffffffffffffffffffffffffffffffff168152602001908152602001600020600084815260200190815260200160002081905550816007600083815260200190815260200160002081905550505b6007600084815260200190815260200160002060009055600660008573ffffffffffffffffffffffffffffffffffffffff1673ffffffffffffffffffffffffffffffffffffffff16815260200190815260200160002060008381526020019081526020016000206000905550505050565b6000600160088054905061273491906135f4565b905060006009600084815260200190815260200160002054905060006008838154811061278a577f4e487b7100000000000000000000000000000000000000000000000000000000600052603260045260246000fd5b9060005260206000200154905080600883815481106127d2577f4e487b7100000000000000000000000000000000000000000000000000000000600052603260045260246000fd5b906000526020600020018190555081600960008381526020019081526020016000208190555060096000858152602001908152602001600020600090556008805480612847577f4e487b7100000000000000000000000000000000000000000000000000000000600052603160045260246000fd5b6001900381819060005260206000200160009055905550505050565b600061286e83610c56565b905081600660008573ffffffffffffffffffffffffffffffffffffffff1673ffffffffffffffffffffffffffffffffffffffff168152602001908152602001600020600083815260200190815260200160002081905550806007600084815260200190815260200160002081905550505050565b8280546128ee906136de565b90600052602060002090601f0160209004810192826129105760008555612957565b82601f1061292957805160ff1916838001178555612957565b82800160010185558215612957579182015b8281111561295657825182559160200191906001019061293b565b5b50905061296491906129a8565b5090565b508054612974906136de565b6000825580601f1061298657506129a5565b601f0160209004906000526020600020908101906129a491906129a8565b5b50565b5b808211156129c15760008160009055506001016129a9565b5090565b60006129d86129d38461346e565b613449565b9050828152602081018484840111156129f057600080fd5b6129fb84828561369c565b509392505050565b6000612a16612a118461349f565b613449565b905082815260208101848484011115612a2e57600080fd5b612a3984828561369c565b509392505050565b600081359050612a5081613d5b565b92915050565b600081359050612a6581613d72565b92915050565b600081359050612a7a81613d89565b92915050565b600081519050612a8f81613d89565b92915050565b600082601f830112612aa657600080fd5b8135612ab68482602086016129c5565b91505092915050565b600082601f830112612ad057600080fd5b8135612ae0848260208601612a03565b91505092915050565b600081359050612af881613da0565b92915050565b600060208284031215612b1057600080fd5b6000612b1e84828501612a41565b91505092915050565b60008060408385031215612b3a57600080fd5b6000612b4885828601612a41565b9250506020612b5985828601612a41565b9150509250929050565b600080600060608486031215612b7857600080fd5b6000612b8686828701612a41565b9350506020612b9786828701612a41565b9250506040612ba886828701612ae9565b9150509250925092565b60008060008060808587031215612bc857600080fd5b6000612bd687828801612a41565b9450506020612be787828801612a41565b9350506040612bf887828801612ae9565b925050606085013567ffffffffffffffff811115612c1557600080fd5b612c2187828801612a95565b91505092959194509250565b60008060408385031215612c4057600080fd5b6000612c4e85828601612a41565b9250506020612c5f85828601612a56565b9150509250929050565b60008060408385031215612c7c57600080fd5b6000612c8a85828601612a41565b9250506020612c9b85828601612ae9565b9150509250929050565b600060208284031215612cb757600080fd5b6000612cc584828501612a56565b91505092915050565b600060208284031215612ce057600080fd5b6000612cee84828501612a6b565b91505092915050565b600060208284031215612d0957600080fd5b6000612d1784828501612a80565b91505092915050565b600060208284031215612d3257600080fd5b6000612d4084828501612ae9565b91505092915050565b60008060408385031215612d5c57600080fd5b6000612d6a85828601612ae9565b925050602083013567ffffffffffffffff811115612d8757600080fd5b612d9385828601612abf565b9150509250929050565b612da681613628565b82525050565b612db58161363a565b82525050565b6000612dc6826134d0565b612dd081856134e6565b9350612de08185602086016136ab565b612de981613877565b840191505092915050565b6000612dff826134db565b612e0981856134f7565b9350612e198185602086016136ab565b612e2281613877565b840191505092915050565b6000612e38826134db565b612e428185613508565b9350612e528185602086016136ab565b80840191505092915050565b6000612e6b602b836134f7565b9150612e7682613888565b604082019050919050565b6000612e8e6032836134f7565b9150612e99826138d7565b604082019050919050565b6000612eb16026836134f7565b9150612ebc82613926565b604082019050919050565b6000612ed46020836134f7565b9150612edf82613975565b602082019050919050565b6000612ef76025836134f7565b9150612f028261399e565b604082019050919050565b6000612f1a601c836134f7565b9150612f25826139ed565b602082019050919050565b6000612f3d6024836134f7565b9150612f4882613a16565b604082019050919050565b6000612f606019836134f7565b9150612f6b82613a65565b602082019050919050565b6000612f836029836134f7565b9150612f8e82613a8e565b604082019050919050565b6000612fa6602e836134f7565b9150612fb182613add565b604082019050919050565b6000612fc96019836134f7565b9150612fd482613b2c565b602082019050919050565b6000612fec603e836134f7565b9150612ff782613b55565b604082019050919050565b600061300f6020836134f7565b915061301a82613ba4565b602082019050919050565b60006130326020836134f7565b915061303d82613bcd565b602082019050919050565b60006130556018836134f7565b915061306082613bf6565b602082019050919050565b60006130786022836134f7565b915061308382613c1f565b604082019050919050565b600061309b6021836134f7565b91506130a682613c6e565b604082019050919050565b60006130be602c836134f7565b91506130c982613cbd565b604082019050919050565b60006130e1602e836134f7565b91506130ec82613d0c565b604082019050919050565b61310081613692565b82525050565b60006131128285612e2d565b915061311e8284612e2d565b91508190509392505050565b600060208201905061313f6000830184612d9d565b92915050565b600060808201905061315a6000830187612d9d565b6131676020830186612d9d565b61317460408301856130f7565b81810360608301526131868184612dbb565b905095945050505050565b60006020820190506131a66000830184612dac565b92915050565b600060208201905081810360008301526131c68184612df4565b905092915050565b600060208201905081810360008301526131e781612e5e565b9050919050565b6000602082019050818103600083015261320781612e81565b9050919050565b6000602082019050818103600083015261322781612ea4565b9050919050565b6000602082019050818103600083015261324781612ec7565b9050919050565b6000602082019050818103600083015261326781612eea565b9050919050565b6000602082019050818103600083015261328781612f0d565b9050919050565b600060208201905081810360008301526132a781612f30565b9050919050565b600060208201905081810360008301526132c781612f53565b9050919050565b600060208201905081810360008301526132e781612f76565b9050919050565b6000602082019050818103600083015261330781612f99565b9050919050565b6000602082019050818103600083015261332781612fbc565b9050919050565b6000602082019050818103600083015261334781612fdf565b9050919050565b6000602082019050818103600083015261336781613002565b9050919050565b6000602082019050818103600083015261338781613025565b9050919050565b600060208201905081810360008301526133a781613048565b9050919050565b600060208201905081810360008301526133c78161306b565b9050919050565b600060208201905081810360008301526133e78161308e565b9050919050565b60006020820190508181036000830152613407816130b1565b9050919050565b60006020820190508181036000830152613427816130d4565b9050919050565b600060208201905061344360008301846130f7565b92915050565b6000613453613464565b905061345f8282613710565b919050565b6000604051905090565b600067ffffffffffffffff82111561348957613488613848565b5b61349282613877565b9050602081019050919050565b600067ffffffffffffffff8211156134ba576134b9613848565b5b6134c382613877565b9050602081019050919050565b600081519050919050565b600081519050919050565b600082825260208201905092915050565b600082825260208201905092915050565b600081905092915050565b600061351e82613692565b915061352983613692565b9250827fffffffffffffffffffffffffffffffffffffffffffffffffffffffffffffffff0382111561355e5761355d6137bb565b5b828201905092915050565b600061357482613692565b915061357f83613692565b92508261358f5761358e6137ea565b5b828204905092915050565b60006135a582613692565b91506135b083613692565b9250817fffffffffffffffffffffffffffffffffffffffffffffffffffffffffffffffff04831182151516156135e9576135e86137bb565b5b828202905092915050565b60006135ff82613692565b915061360a83613692565b92508282101561361d5761361c6137bb565b5b828203905092915050565b600061363382613672565b9050919050565b60008115159050919050565b60007fffffffff0000000000000000000000000000000000000000000000000000000082169050919050565b600073ffffffffffffffffffffffffffffffffffffffff82169050919050565b6000819050919050565b82818337600083830152505050565b60005b838110156136c95780820151818401526020810190506136ae565b838111156136d8576000848401525b50505050565b600060028204905060018216806136f657607f821691505b6020821081141561370a57613709613819565b5b50919050565b61371982613877565b810181811067ffffffffffffffff8211171561373857613737613848565b5b80604052505050565b600061374c82613692565b91507fffffffffffffffffffffffffffffffffffffffffffffffffffffffffffffffff82141561377f5761377e6137bb565b5b600182019050919050565b600061379582613692565b91506137a083613692565b9250826137b0576137af6137ea565b5b828206905092915050565b7f4e487b7100000000000000000000000000000000000000000000000000000000600052601160045260246000fd5b7f4e487b7100000000000000000000000000000000000000000000000000000000600052601260045260246000fd5b7f4e487b7100000000000000000000000000000000000000000000000000000000600052602260045260246000fd5b7f4e487b7100000000000000000000000000000000000000000000000000000000600052604160045260246000fd5b6000601f19601f8301169050919050565b7f455243373231456e756d657261626c653a206f776e657220696e646578206f7560008201527f74206f6620626f756e6473000000000000000000000000000000000000000000602082015250565b7f4552433732313a207472616e7366657220746f206e6f6e20455243373231526560008201527f63656976657220696d706c656d656e7465720000000000000000000000000000602082015250565b7f4f776e61626c653a206e6577206f776e657220697320746865207a65726f206160008201527f6464726573730000000000000000000000000000000000000000000000000000602082015250565b7f507572636861736520776f756c6420657863656564206d617820746f6b656e73600082015250565b7f4552433732313a207472616e736665722066726f6d20696e636f72726563742060008201527f6f776e6572000000000000000000000000000000000000000000000000000000602082015250565b7f4552433732313a20746f6b656e20616c7265616479206d696e74656400000000600082015250565b7f4552433732313a207472616e7366657220746f20746865207a65726f2061646460008201527f7265737300000000000000000000000000000000000000000000000000000000602082015250565b7f4552433732313a20617070726f766520746f2063616c6c657200000000000000600082015250565b7f4552433732313a2061646472657373207a65726f206973206e6f74206120766160008201527f6c6964206f776e65720000000000000000000000000000000000000000000000602082015250565b7f45524337323155524953746f726167653a2055524920736574206f66206e6f6e60008201527f6578697374656e7420746f6b656e000000000000000000000000000000000000602082015250565b7f56616c75652073656e74206973206e6f7420636f727265637400000000000000600082015250565b7f4552433732313a20617070726f76652063616c6c6572206973206e6f7420746f60008201527f6b656e206f776e6572206e6f7220617070726f76656420666f7220616c6c0000602082015250565b7f4552433732313a206d696e7420746f20746865207a65726f2061646472657373600082015250565b7f4f776e61626c653a2063616c6c6572206973206e6f7420746865206f776e6572600082015250565b7f4552433732313a20696e76616c696420746f6b656e2049440000000000000000600082015250565b7f53616c65206d7573742062652061637469766520746f206d696e7420746f6b6560008201527f6e73000000000000000000000000000000000000000000000000000000000000602082015250565b7f4552433732313a20617070726f76616c20746f2063757272656e74206f776e6560008201527f7200000000000000000000000000000000000000000000000000000000000000602082015250565b7f455243373231456e756d657261626c653a20676c6f62616c20696e646578206f60008201527f7574206f6620626f756e64730000000000000000000000000000000000000000602082015250565b7f4552433732313a2063616c6c6572206973206e6f7420746f6b656e206f776e6560008201527f72206e6f7220617070726f766564000000000000000000000000000000000000602082015250565b613d6481613628565b8114613d6f57600080fd5b50565b613d7b8161363a565b8114613d8657600080fd5b50565b613d9281613646565b8114613d9d57600080fd5b50565b613da981613692565b8114613db457600080fd5b5056fea264697066735822122004291d4ed39695a0e2e42ef599c3c8847fdfb65340277426af45ce0ebd976d5464736f6c63430008040033",
  "linkReferences": {},
  "deployedLinkReferences": {}
}